{
  "_format": "hh-sol-artifact-1",
  "contractName": "LogStorage",
  "sourceName": "contracts/LogStorage.sol",
  "abi": [
    {
      "anonymous": false,
      "inputs": [
        {
          "indexed": true,
          "internalType": "uint256",
          "name": "logId",
          "type": "uint256"
        },
        {
          "indexed": false,
          "internalType": "string",
          "name": "ip",
          "type": "string"
        },
        {
          "indexed": false,
          "internalType": "string",
          "name": "command",
          "type": "string"
        },
        {
          "indexed": false,
          "internalType": "string",
          "name": "threatLevel",
          "type": "string"
        },
        {
          "indexed": false,
          "internalType": "string",
          "name": "timestamp",
          "type": "string"
        }
      ],
      "name": "LogStored",
      "type": "event"
    },
    {
      "inputs": [
        {
          "internalType": "uint256",
          "name": "index",
          "type": "uint256"
        }
      ],
      "name": "getLog",
      "outputs": [
        {
          "internalType": "string",
          "name": "",
          "type": "string"
        },
        {
          "internalType": "string",
          "name": "",
          "type": "string"
        },
        {
          "internalType": "string",
          "name": "",
          "type": "string"
        },
        {
          "internalType": "string",
          "name": "",
          "type": "string"
        }
      ],
      "stateMutability": "view",
      "type": "function"
    },
    {
      "inputs": [],
      "name": "getLogCount",
      "outputs": [
        {
          "internalType": "uint256",
          "name": "",
          "type": "uint256"
        }
      ],
      "stateMutability": "view",
      "type": "function"
    },
    {
      "inputs": [
        {
          "internalType": "uint256",
          "name": "",
          "type": "uint256"
        }
      ],
      "name": "logs",
      "outputs": [
        {
          "internalType": "string",
          "name": "ip",
          "type": "string"
        },
        {
          "internalType": "string",
          "name": "command",
          "type": "string"
        },
        {
          "internalType": "string",
          "name": "threatLevel",
          "type": "string"
        },
        {
          "internalType": "string",
          "name": "timestamp",
          "type": "string"
        }
      ],
      "stateMutability": "view",
      "type": "function"
    },
    {
      "inputs": [
        {
          "internalType": "string",
          "name": "ip",
          "type": "string"
        },
        {
          "internalType": "string",
          "name": "command",
          "type": "string"
        },
        {
          "internalType": "string",
          "name": "threatLevel",
          "type": "string"
        },
        {
          "internalType": "string",
          "name": "timestamp",
          "type": "string"
        }
      ],
      "name": "storeLog",
      "outputs": [],
      "stateMutability": "nonpayable",
      "type": "function"
    }
  ],
  "bytecode": "0x608060405234801561001057600080fd5b50610ccd806100206000396000f3fe608060405234801561001057600080fd5b506004361061004c5760003560e01c80633206b2c614610051578063618033db14610084578063e79899bd146100a2578063f6942992146100d5575b600080fd5b61006b60048036038101906100669190610966565b6100f1565b60405161007b9493929190610a17565b60405180910390f35b61008c610400565b6040516100999190610a98565b60405180910390f35b6100bc60048036038101906100b79190610966565b61040c565b6040516100cc9493929190610a17565b60405180910390f35b6100ef60048036038101906100ea91906108a3565b61066c565b005b606080606080600080549050851061013e576040517f08c379a000000000000000000000000000000000000000000000000000000000815260040161013590610a78565b60405180910390fd5b6000808681548110610179577f4e487b7100000000000000000000000000000000000000000000000000000000600052603260045260246000fd5b90600052602060002090600402016040518060800160405290816000820180546101a290610bb0565b80601f01602080910402602001604051908101604052809291908181526020018280546101ce90610bb0565b801561021b5780601f106101f05761010080835404028352916020019161021b565b820191906000526020600020905b8154815290600101906020018083116101fe57829003601f168201915b5050505050815260200160018201805461023490610bb0565b80601f016020809104026020016040519081016040528092919081815260200182805461026090610bb0565b80156102ad5780601f10610282576101008083540402835291602001916102ad565b820191906000526020600020905b81548152906001019060200180831161029057829003601f168201915b505050505081526020016002820180546102c690610bb0565b80601f01602080910402602001604051908101604052809291908181526020018280546102f290610bb0565b801561033f5780601f106103145761010080835404028352916020019161033f565b820191906000526020600020905b81548152906001019060200180831161032257829003601f168201915b5050505050815260200160038201805461035890610bb0565b80601f016020809104026020016040519081016040528092919081815260200182805461038490610bb0565b80156103d15780601f106103a6576101008083540402835291602001916103d1565b820191906000526020600020905b8154815290600101906020018083116103b457829003601f168201915b505050505081525050905080600001518160200151826040015183606001519450945094509450509193509193565b60008080549050905090565b6000818154811061041c57600080fd5b906000526020600020906004020160009150905080600001805461043f90610bb0565b80601f016020809104026020016040519081016040528092919081815260200182805461046b90610bb0565b80156104b85780601f1061048d576101008083540402835291602001916104b8565b820191906000526020600020905b81548152906001019060200180831161049b57829003601f168201915b5050505050908060010180546104cd90610bb0565b80601f01602080910402602001604051908101604052809291908181526020018280546104f990610bb0565b80156105465780601f1061051b57610100808354040283529160200191610546565b820191906000526020600020905b81548152906001019060200180831161052957829003601f168201915b50505050509080600201805461055b90610bb0565b80601f016020809104026020016040519081016040528092919081815260200182805461058790610bb0565b80156105d45780601f106105a9576101008083540402835291602001916105d4565b820191906000526020600020905b8154815290600101906020018083116105b757829003601f168201915b5050505050908060030180546105e990610bb0565b80601f016020809104026020016040519081016040528092919081815260200182805461061590610bb0565b80156106625780601f1061063757610100808354040283529160200191610662565b820191906000526020600020905b81548152906001019060200180831161064557829003601f168201915b5050505050905084565b6000604051806080016040528086815260200185815260200184815260200183815250908060018154018082558091505060019003906000526020600020906004020160009091909190915060008201518160000190805190602001906106d4929190610783565b5060208201518160010190805190602001906106f1929190610783565b50604082015181600201908051906020019061070e929190610783565b50606082015181600301908051906020019061072b929190610783565b50505060016000805490506107409190610b30565b7f1679b0d5cbed91ad6fbfdd1b38a2a01699b6fd5d56fec68f8a73ea593833987b858585856040516107759493929190610a17565b60405180910390a250505050565b82805461078f90610bb0565b90600052602060002090601f0160209004810192826107b157600085556107f8565b82601f106107ca57805160ff19168380011785556107f8565b828001600101855582156107f8579182015b828111156107f75782518255916020019190600101906107dc565b5b5090506108059190610809565b5090565b5b8082111561082257600081600090555060010161080a565b5090565b600061083961083484610ae4565b610ab3565b90508281526020810184848401111561085157600080fd5b61085c848285610b6e565b509392505050565b600082601f83011261087557600080fd5b8135610885848260208601610826565b91505092915050565b60008135905061089d81610c80565b92915050565b600080600080608085870312156108b957600080fd5b600085013567ffffffffffffffff8111156108d357600080fd5b6108df87828801610864565b945050602085013567ffffffffffffffff8111156108fc57600080fd5b61090887828801610864565b935050604085013567ffffffffffffffff81111561092557600080fd5b61093187828801610864565b925050606085013567ffffffffffffffff81111561094e57600080fd5b61095a87828801610864565b91505092959194509250565b60006020828403121561097857600080fd5b60006109868482850161088e565b91505092915050565b600061099a82610b14565b6109a48185610b1f565b93506109b4818560208601610b7d565b6109bd81610c6f565b840191505092915050565b60006109d5600d83610b1f565b91507f496e76616c696420696e646578000000000000000000000000000000000000006000830152602082019050919050565b610a1181610b64565b82525050565b60006080820190508181036000830152610a31818761098f565b90508181036020830152610a45818661098f565b90508181036040830152610a59818561098f565b90508181036060830152610a6d818461098f565b905095945050505050565b60006020820190508181036000830152610a91816109c8565b9050919050565b6000602082019050610aad6000830184610a08565b92915050565b6000604051905081810181811067ffffffffffffffff82111715610ada57610ad9610c40565b5b8060405250919050565b600067ffffffffffffffff821115610aff57610afe610c40565b5b601f19601f8301169050602081019050919050565b600081519050919050565b600082825260208201905092915050565b6000610b3b82610b64565b9150610b4683610b64565b925082821015610b5957610b58610be2565b5b828203905092915050565b6000819050919050565b82818337600083830152505050565b60005b83811015610b9b578082015181840152602081019050610b80565b83811115610baa576000848401525b50505050565b60006002820490506001821680610bc857607f821691505b60208210811415610bdc57610bdb610c11565b5b50919050565b7f4e487b7100000000000000000000000000000000000000000000000000000000600052601160045260246000fd5b7f4e487b7100000000000000000000000000000000000000000000000000000000600052602260045260246000fd5b7f4e487b7100000000000000000000000000000000000000000000000000000000600052604160045260246000fd5b6000601f19601f8301169050919050565b610c8981610b64565b8114610c9457600080fd5b5056fea2646970667358221220e6f07dc40114ad7974504e91a8e4a37fb69d3f8b1a9eaaf25efd8fdd6542f6c564736f6c63430008000033",
  "linkReferences": {},
  "deployedLinkReferences": {}
}